{
  "contractName": "Dmail",
  "abi": [
    {
      "constant": true,
      "inputs": [
        {
          "name": "",
          "type": "address"
        }
      ],
      "name": "keys",
      "outputs": [
        {
          "name": "",
          "type": "string"
        }
      ],
      "payable": false,
      "stateMutability": "view",
      "type": "function"
    },
    {
      "constant": true,
      "inputs": [
        {
          "name": "",
          "type": "address"
        },
        {
          "name": "",
          "type": "uint256"
        }
      ],
      "name": "mailboxes",
      "outputs": [
        {
          "name": "message",
          "type": "string"
        },
        {
          "name": "aes_key",
          "type": "string"
        },
        {
          "name": "aes_iv",
          "type": "string"
        },
        {
          "name": "sender",
          "type": "address"
        }
      ],
      "payable": false,
      "stateMutability": "view",
      "type": "function"
    },
    {
      "constant": true,
      "inputs": [
        {
          "name": "receiver",
          "type": "address"
        }
      ],
      "name": "getKey",
      "outputs": [
        {
          "name": "",
          "type": "string"
        }
      ],
      "payable": false,
      "stateMutability": "view",
      "type": "function"
    },
    {
      "constant": false,
      "inputs": [
        {
          "name": "publicKey",
          "type": "string"
        }
      ],
      "name": "setKey",
      "outputs": [],
      "payable": false,
      "stateMutability": "nonpayable",
      "type": "function"
    },
    {
      "constant": true,
      "inputs": [],
      "name": "getMailCount",
      "outputs": [
        {
          "name": "",
          "type": "uint256"
        }
      ],
      "payable": false,
      "stateMutability": "view",
      "type": "function"
    },
    {
      "constant": true,
      "inputs": [
        {
          "name": "index",
          "type": "uint256"
        }
      ],
      "name": "getMail",
      "outputs": [
        {
          "name": "",
          "type": "string"
        },
        {
          "name": "",
          "type": "string"
        },
        {
          "name": "",
          "type": "string"
        },
        {
          "name": "",
          "type": "address"
        }
      ],
      "payable": false,
      "stateMutability": "view",
      "type": "function"
    },
    {
      "constant": false,
      "inputs": [
        {
          "name": "receiver",
          "type": "address"
        },
        {
          "name": "message",
          "type": "string"
        },
        {
          "name": "aes_key",
          "type": "string"
        },
        {
          "name": "aes_iv",
          "type": "string"
        }
      ],
      "name": "sendMail",
      "outputs": [],
      "payable": false,
      "stateMutability": "nonpayable",
      "type": "function"
    }
  ],
  "bytecode": "0x6060604052341561000f57600080fd5b610ffd8061001e6000396000f300606060405260043610610083576000357c0100000000000000000000000000000000000000000000000000000000900463ffffffff16806310620542146100885780632c6ee4de146100b1578063670d14b2146101b35780636fc656791461026557806393790f4414610482578063af42d10614610534578063dcc5330514610591575b600080fd5b341561009357600080fd5b61009b610738565b6040518082815260200191505060405180910390f35b34156100bc57600080fd5b6101b1600480803573ffffffffffffffffffffffffffffffffffffffff1690602001909190803590602001908201803590602001908080601f0160208091040260200160405190810160405280939291908181526020018383808284378201915050505050509190803590602001908201803590602001908080601f0160208091040260200160405190810160405280939291908181526020018383808284378201915050505050509190803590602001908201803590602001908080601f01602080910402602001604051908101604052809392919081815260200183838082843782019150505050505091905050610782565b005b34156101be57600080fd5b6101ea600480803573ffffffffffffffffffffffffffffffffffffffff169060200190919050506108c7565b6040518080602001828103825283818151815260200191508051906020019080838360005b8381101561022a57808201518184015260208101905061020f565b50505050905090810190601f1680156102575780820380516001836020036101000a031916815260200191505b509250505060405180910390f35b341561027057600080fd5b6102a5600480803573ffffffffffffffffffffffffffffffffffffffff16906020019091908035906020019091905050610977565b604051808060200180602001806020018573ffffffffffffffffffffffffffffffffffffffff1673ffffffffffffffffffffffffffffffffffffffff1681526020018481038452888181546001816001161561010002031660029004815260200191508054600181600116156101000203166002900480156103685780601f1061033d57610100808354040283529160200191610368565b820191906000526020600020905b81548152906001019060200180831161034b57829003601f168201915b50508481038352878181546001816001161561010002031660029004815260200191508054600181600116156101000203166002900480156103eb5780601f106103c0576101008083540402835291602001916103eb565b820191906000526020600020905b8154815290600101906020018083116103ce57829003601f168201915b505084810382528681815460018160011615610100020316600290048152602001915080546001816001161561010002031660029004801561046e5780601f106104435761010080835404028352916020019161046e565b820191906000526020600020905b81548152906001019060200180831161045157829003601f168201915b505097505050505050505060405180910390f35b341561048d57600080fd5b6104b9600480803573ffffffffffffffffffffffffffffffffffffffff169060200190919050506109e0565b6040518080602001828103825283818151815260200191508051906020019080838360005b838110156104f95780820151818401526020810190506104de565b50505050905090810190601f1680156105265780820380516001836020036101000a031916815260200191505b509250505060405180910390f35b341561053f57600080fd5b61058f600480803590602001908201803590602001908080601f01602080910402602001604051908101604052809392919081815260200183838082843782019150505050505091905050610ac6565b005b341561059c57600080fd5b6105b26004808035906020019091905050610b1c565b604051808060200180602001806020018573ffffffffffffffffffffffffffffffffffffffff1673ffffffffffffffffffffffffffffffffffffffff168152602001848103845288818151815260200191508051906020019080838360005b8381101561062c578082015181840152602081019050610611565b50505050905090810190601f1680156106595780820380516001836020036101000a031916815260200191505b50848103835287818151815260200191508051906020019080838360005b83811015610692578082015181840152602081019050610677565b50505050905090810190601f1680156106bf5780820380516001836020036101000a031916815260200191505b50848103825286818151815260200191508051906020019080838360005b838110156106f85780820151818401526020810190506106dd565b50505050905090810190601f1680156107255780820380516001836020036101000a031916815260200191505b5097505050505050505060405180910390f35b6000600160003373ffffffffffffffffffffffffffffffffffffffff1673ffffffffffffffffffffffffffffffffffffffff16815260200190815260200160002080549050905090565b600160008573ffffffffffffffffffffffffffffffffffffffff1673ffffffffffffffffffffffffffffffffffffffff16815260200190815260200160002080548060010182816107d39190610da8565b916000526020600020906004020160006080604051908101604052808781526020018681526020018581526020013373ffffffffffffffffffffffffffffffffffffffff168152509091909150600082015181600001908051906020019061083c929190610dda565b506020820151816001019080519060200190610859929190610dda565b506040820151816002019080519060200190610876929190610dda565b5060608201518160030160006101000a81548173ffffffffffffffffffffffffffffffffffffffff021916908373ffffffffffffffffffffffffffffffffffffffff16021790555050505050505050565b60006020528060005260406000206000915090508054600181600116156101000203166002900480601f01602080910402602001604051908101604052809291908181526020018280546001816001161561010002031660029004801561096f5780601f106109445761010080835404028352916020019161096f565b820191906000526020600020905b81548152906001019060200180831161095257829003601f168201915b505050505081565b60016020528160005260406000208181548110151561099257fe5b9060005260206000209060040201600091509150508060000190806001019080600201908060030160009054906101000a900473ffffffffffffffffffffffffffffffffffffffff16905084565b6109e8610e5a565b6000808373ffffffffffffffffffffffffffffffffffffffff1673ffffffffffffffffffffffffffffffffffffffff1681526020019081526020016000208054600181600116156101000203166002900480601f016020809104026020016040519081016040528092919081815260200182805460018160011615610100020316600290048015610aba5780601f10610a8f57610100808354040283529160200191610aba565b820191906000526020600020905b815481529060010190602001808311610a9d57829003601f168201915b50505050509050919050565b806000803373ffffffffffffffffffffffffffffffffffffffff1673ffffffffffffffffffffffffffffffffffffffff1681526020019081526020016000209080519060200190610b18929190610e6e565b5050565b610b24610e5a565b610b2c610e5a565b610b34610e5a565b600080600160003373ffffffffffffffffffffffffffffffffffffffff1673ffffffffffffffffffffffffffffffffffffffff16815260200190815260200160002086815481101515610b8357fe5b906000526020600020906004020190508060000181600101826002018360030160009054906101000a900473ffffffffffffffffffffffffffffffffffffffff16838054600181600116156101000203166002900480601f016020809104026020016040519081016040528092919081815260200182805460018160011615610100020316600290048015610c595780601f10610c2e57610100808354040283529160200191610c59565b820191906000526020600020905b815481529060010190602001808311610c3c57829003601f168201915b50505050509350828054600181600116156101000203166002900480601f016020809104026020016040519081016040528092919081815260200182805460018160011615610100020316600290048015610cf55780601f10610cca57610100808354040283529160200191610cf5565b820191906000526020600020905b815481529060010190602001808311610cd857829003601f168201915b50505050509250818054600181600116156101000203166002900480601f016020809104026020016040519081016040528092919081815260200182805460018160011615610100020316600290048015610d915780601f10610d6657610100808354040283529160200191610d91565b820191906000526020600020905b815481529060010190602001808311610d7457829003601f168201915b505050505091509450945094509450509193509193565b815481835581811511610dd557600402816004028360005260206000209182019101610dd49190610eee565b5b505050565b828054600181600116156101000203166002900490600052602060002090601f016020900481019282601f10610e1b57805160ff1916838001178555610e49565b82800160010185558215610e49579182015b82811115610e48578251825591602001919060010190610e2d565b5b509050610e569190610f64565b5090565b602060405190810160405280600081525090565b828054600181600116156101000203166002900490600052602060002090601f016020900481019282601f10610eaf57805160ff1916838001178555610edd565b82800160010185558215610edd579182015b82811115610edc578251825591602001919060010190610ec1565b5b509050610eea9190610f64565b5090565b610f6191905b80821115610f5d5760008082016000610f0d9190610f89565b600182016000610f1d9190610f89565b600282016000610f2d9190610f89565b6003820160006101000a81549073ffffffffffffffffffffffffffffffffffffffff021916905550600401610ef4565b5090565b90565b610f8691905b80821115610f82576000816000905550600101610f6a565b5090565b90565b50805460018160011615610100020316600290046000825580601f10610faf5750610fce565b601f016020900490600052602060002090810190610fcd9190610f64565b5b505600a165627a7a72305820553f806432edf9d24a412bcdcca84874ac6a2bbae0961dc6f1f8ff29c14698eb0029",
  "source": "pragma solidity ^0.4.19;\r\n\r\ncontract Dmail {\r\n    struct Mail {\r\n        string message; // Encrypted using AES-128\r\n        string aes_key; // Encrypted using RSAES PKCS#1 v1.5\r\n        string aes_iv;\r\n        address sender;\r\n    }\r\n\r\n    mapping(address => string) public keys;\r\n    mapping(address => Mail[]) public mailboxes;\r\n\r\n    function getKey(address receiver) public constant returns (string) {\r\n        return keys[receiver];\r\n    }\r\n\r\n    function setKey(string publicKey) public {\r\n        keys[msg.sender] = publicKey;\r\n    }\r\n\r\n    function getMailCount() public constant returns (uint) {\r\n        return mailboxes[msg.sender].length;\r\n    }\r\n\r\n    function getMail(uint index) public constant returns (string, string, string, address) {\r\n        var mail = mailboxes[msg.sender][index];\r\n        return (mail.message, mail.aes_key, mail.aes_iv, mail.sender);\r\n    }\r\n\r\n\r\n    function sendMail(address receiver, string message, string aes_key, string aes_iv) public {\r\n        mailboxes[receiver].push(Mail({\r\n            message: message,\r\n            aes_key: aes_key,\r\n            aes_iv: aes_iv,\r\n            sender: msg.sender\r\n        }));\r\n    }\r\n}\r\n",
  "sourcePath": "C:\\Users\\David\\Projects\\Dmail\\contracts\\Dmail.sol",
  "compiler": {
    "name": "solc",
    "version": "0.4.19+commit.c4cbbb05.Emscripten.clang"
  },
  "schemaVersion": "1.0.1",
  "updatedAt": "2018-04-03T04:21:37.225Z"
}